{
  "_format": "hh-sol-artifact-1",
  "contractName": "EscrowHub",
  "sourceName": "contracts/EscrowHub.sol",
  "abi": [
    {
      "inputs": [],
      "stateMutability": "nonpayable",
      "type": "constructor"
    },
    {
      "anonymous": false,
      "inputs": [
        {
          "indexed": false,
          "internalType": "address",
          "name": "previousAdmin",
          "type": "address"
        },
        {
          "indexed": false,
          "internalType": "address",
          "name": "newAdmin",
          "type": "address"
        }
      ],
      "name": "AdminChanged",
      "type": "event"
    },
    {
      "anonymous": false,
      "inputs": [
        {
          "indexed": true,
          "internalType": "address",
          "name": "beacon",
          "type": "address"
        }
      ],
      "name": "BeaconUpgraded",
      "type": "event"
    },
    {
      "anonymous": false,
      "inputs": [
        {
          "indexed": true,
          "internalType": "uint256",
          "name": "escrowId",
          "type": "uint256"
        },
        {
          "indexed": false,
          "internalType": "string",
          "name": "cid",
          "type": "string"
        },
        {
          "indexed": false,
          "internalType": "address",
          "name": "buyer",
          "type": "address"
        },
        {
          "indexed": false,
          "internalType": "address",
          "name": "seller",
          "type": "address"
        },
        {
          "indexed": true,
          "internalType": "uint256",
          "name": "amount",
          "type": "uint256"
        },
        {
          "indexed": true,
          "internalType": "uint256",
          "name": "fee",
          "type": "uint256"
        },
        {
          "indexed": false,
          "internalType": "enum EscrowHub.EscrowState",
          "name": "state",
          "type": "uint8"
        }
      ],
      "name": "EscrowCreated",
      "type": "event"
    },
    {
      "anonymous": false,
      "inputs": [
        {
          "indexed": true,
          "internalType": "uint256",
          "name": "escrowId",
          "type": "uint256"
        },
        {
          "indexed": false,
          "internalType": "string",
          "name": "cid",
          "type": "string"
        },
        {
          "indexed": false,
          "internalType": "address",
          "name": "buyer",
          "type": "address"
        },
        {
          "indexed": false,
          "internalType": "address",
          "name": "seller",
          "type": "address"
        },
        {
          "indexed": false,
          "internalType": "uint256",
          "name": "amount",
          "type": "uint256"
        },
        {
          "indexed": false,
          "internalType": "uint256",
          "name": "fee",
          "type": "uint256"
        },
        {
          "indexed": true,
          "internalType": "enum EscrowHub.EscrowState",
          "name": "state",
          "type": "uint8"
        }
      ],
      "name": "EscrowUpdated",
      "type": "event"
    },
    {
      "anonymous": false,
      "inputs": [
        {
          "indexed": false,
          "internalType": "uint8",
          "name": "version",
          "type": "uint8"
        }
      ],
      "name": "Initialized",
      "type": "event"
    },
    {
      "anonymous": false,
      "inputs": [
        {
          "indexed": true,
          "internalType": "address",
          "name": "previousOwner",
          "type": "address"
        },
        {
          "indexed": true,
          "internalType": "address",
          "name": "newOwner",
          "type": "address"
        }
      ],
      "name": "OwnershipTransferred",
      "type": "event"
    },
    {
      "anonymous": false,
      "inputs": [
        {
          "indexed": true,
          "internalType": "address",
          "name": "implementation",
          "type": "address"
        }
      ],
      "name": "Upgraded",
      "type": "event"
    },
    {
      "inputs": [
        {
          "internalType": "uint256",
          "name": "_escrowId",
          "type": "uint256"
        }
      ],
      "name": "claimAfterExpire",
      "outputs": [],
      "stateMutability": "nonpayable",
      "type": "function"
    },
    {
      "inputs": [
        {
          "internalType": "uint256",
          "name": "_escrowId",
          "type": "uint256"
        }
      ],
      "name": "deliver",
      "outputs": [],
      "stateMutability": "nonpayable",
      "type": "function"
    },
    {
      "inputs": [
        {
          "internalType": "uint256",
          "name": "escrowId",
          "type": "uint256"
        }
      ],
      "name": "fetchEscrow",
      "outputs": [
        {
          "components": [
            {
              "internalType": "uint256",
              "name": "id",
              "type": "uint256"
            },
            {
              "internalType": "string",
              "name": "cid",
              "type": "string"
            },
            {
              "internalType": "address payable",
              "name": "buyer",
              "type": "address"
            },
            {
              "internalType": "address payable",
              "name": "seller",
              "type": "address"
            },
            {
              "internalType": "uint256",
              "name": "amount",
              "type": "uint256"
            },
            {
              "internalType": "uint256",
              "name": "fee",
              "type": "uint256"
            },
            {
              "internalType": "uint256",
              "name": "createdAt",
              "type": "uint256"
            },
            {
              "internalType": "uint256",
              "name": "expireAt",
              "type": "uint256"
            },
            {
              "internalType": "uint256",
              "name": "clearAt",
              "type": "uint256"
            },
            {
              "internalType": "enum EscrowHub.EscrowState",
              "name": "state",
              "type": "uint8"
            }
          ],
          "internalType": "struct EscrowHub.Escrow",
          "name": "",
          "type": "tuple"
        }
      ],
      "stateMutability": "view",
      "type": "function"
    },
    {
      "inputs": [
        {
          "internalType": "uint256",
          "name": "cursor",
          "type": "uint256"
        },
        {
          "internalType": "uint256",
          "name": "perPageCount",
          "type": "uint256"
        }
      ],
      "name": "fetchEscrowsPaginated",
      "outputs": [
        {
          "components": [
            {
              "internalType": "uint256",
              "name": "id",
              "type": "uint256"
            },
            {
              "internalType": "string",
              "name": "cid",
              "type": "string"
            },
            {
              "internalType": "address payable",
              "name": "buyer",
              "type": "address"
            },
            {
              "internalType": "address payable",
              "name": "seller",
              "type": "address"
            },
            {
              "internalType": "uint256",
              "name": "amount",
              "type": "uint256"
            },
            {
              "internalType": "uint256",
              "name": "fee",
              "type": "uint256"
            },
            {
              "internalType": "uint256",
              "name": "createdAt",
              "type": "uint256"
            },
            {
              "internalType": "uint256",
              "name": "expireAt",
              "type": "uint256"
            },
            {
              "internalType": "uint256",
              "name": "clearAt",
              "type": "uint256"
            },
            {
              "internalType": "enum EscrowHub.EscrowState",
              "name": "state",
              "type": "uint8"
            }
          ],
          "internalType": "struct EscrowHub.Escrow[]",
          "name": "data",
          "type": "tuple[]"
        },
        {
          "internalType": "uint256",
          "name": "totalItemCount",
          "type": "uint256"
        },
        {
          "internalType": "bool",
          "name": "hasNextPage",
          "type": "bool"
        },
        {
          "internalType": "uint256",
          "name": "nextCursor",
          "type": "uint256"
        }
      ],
      "stateMutability": "view",
      "type": "function"
    },
    {
      "inputs": [],
      "name": "fetchMyEscrows",
      "outputs": [
        {
          "components": [
            {
              "internalType": "uint256",
              "name": "id",
              "type": "uint256"
            },
            {
              "internalType": "string",
              "name": "cid",
              "type": "string"
            },
            {
              "internalType": "address payable",
              "name": "buyer",
              "type": "address"
            },
            {
              "internalType": "address payable",
              "name": "seller",
              "type": "address"
            },
            {
              "internalType": "uint256",
              "name": "amount",
              "type": "uint256"
            },
            {
              "internalType": "uint256",
              "name": "fee",
              "type": "uint256"
            },
            {
              "internalType": "uint256",
              "name": "createdAt",
              "type": "uint256"
            },
            {
              "internalType": "uint256",
              "name": "expireAt",
              "type": "uint256"
            },
            {
              "internalType": "uint256",
              "name": "clearAt",
              "type": "uint256"
            },
            {
              "internalType": "enum EscrowHub.EscrowState",
              "name": "state",
              "type": "uint8"
            }
          ],
          "internalType": "struct EscrowHub.Escrow[]",
          "name": "",
          "type": "tuple[]"
        }
      ],
      "stateMutability": "view",
      "type": "function"
    },
    {
      "inputs": [],
      "name": "initialize",
      "outputs": [],
      "stateMutability": "nonpayable",
      "type": "function"
    },
    {
      "inputs": [
        {
          "internalType": "address",
          "name": "_seller",
          "type": "address"
        },
        {
          "internalType": "string",
          "name": "_cid",
          "type": "string"
        },
        {
          "internalType": "uint256",
          "name": "expireIn",
          "type": "uint256"
        }
      ],
      "name": "newEscrow",
      "outputs": [],
      "stateMutability": "payable",
      "type": "function"
    },
    {
      "inputs": [],
      "name": "owner",
      "outputs": [
        {
          "internalType": "address",
          "name": "",
          "type": "address"
        }
      ],
      "stateMutability": "view",
      "type": "function"
    },
    {
      "inputs": [],
      "name": "proxiableUUID",
      "outputs": [
        {
          "internalType": "bytes32",
          "name": "",
          "type": "bytes32"
        }
      ],
      "stateMutability": "view",
      "type": "function"
    },
    {
      "inputs": [
        {
          "internalType": "uint256",
          "name": "_escrowId",
          "type": "uint256"
        }
      ],
      "name": "refund",
      "outputs": [],
      "stateMutability": "nonpayable",
      "type": "function"
    },
    {
      "inputs": [],
      "name": "renounceOwnership",
      "outputs": [],
      "stateMutability": "nonpayable",
      "type": "function"
    },
    {
      "inputs": [
        {
          "internalType": "address",
          "name": "newOwner",
          "type": "address"
        }
      ],
      "name": "transferOwnership",
      "outputs": [],
      "stateMutability": "nonpayable",
      "type": "function"
    },
    {
      "inputs": [
        {
          "internalType": "address",
          "name": "newImplementation",
          "type": "address"
        }
      ],
      "name": "upgradeTo",
      "outputs": [],
      "stateMutability": "nonpayable",
      "type": "function"
    },
    {
      "inputs": [
        {
          "internalType": "address",
          "name": "newImplementation",
          "type": "address"
        },
        {
          "internalType": "bytes",
          "name": "data",
          "type": "bytes"
        }
      ],
      "name": "upgradeToAndCall",
      "outputs": [],
      "stateMutability": "payable",
      "type": "function"
    }
  ],
  "bytecode": "0x60a06040523073ffffffffffffffffffffffffffffffffffffffff1660809073ffffffffffffffffffffffffffffffffffffffff1660601b8152503480156200004757600080fd5b50620000586200005e60201b60201c565b62000209565b600060019054906101000a900460ff1615620000b1576040517f08c379a0000000000000000000000000000000000000000000000000000000008152600401620000a8906200015d565b60405180910390fd5b60ff801660008054906101000a900460ff1660ff161015620001235760ff6000806101000a81548160ff021916908360ff1602179055507f7f26b83ff96e1f2b6a682f133852f6798a09c465da95921460cefb384740249860ff6040516200011a91906200017f565b60405180910390a15b565b6000620001346027836200019c565b91506200014182620001ba565b604082019050919050565b6200015781620001ad565b82525050565b60006020820190508181036000830152620001788162000125565b9050919050565b60006020820190506200019660008301846200014c565b92915050565b600082825260208201905092915050565b600060ff82169050919050565b7f496e697469616c697a61626c653a20636f6e747261637420697320696e69746960008201527f616c697a696e6700000000000000000000000000000000000000000000000000602082015250565b60805160601c614fa46200024460003960008181610ec501528181610f54015281816114e60152818161157501526116250152614fa46000f3fe6080604052600436106100dd5760003560e01c8063715018a61161007f5780639b0731af116100595780639b0731af14610244578063d0f81cbf1461026d578063ede6d084146102aa578063f2fde38b146102ea576100dd565b8063715018a6146101eb5780638129fc1c146102025780638da5cb5b14610219576100dd565b80633bd5d173116100bb5780633bd5d1731461015f5780634f1ef2861461018857806352d1902d146101a45780636fbac0fa146101cf576100dd565b8063261582b9146100e2578063278ecde11461010d5780633659cfe614610136575b600080fd5b3480156100ee57600080fd5b506100f7610313565b604051610104919061407d565b60405180910390f35b34801561011957600080fd5b50610134600480360381019061012f9190613934565b610a58565b005b34801561014257600080fd5b5061015d60048036038101906101589190613827565b610ec3565b005b34801561016b57600080fd5b5061018660048036038101906101819190613934565b611072565b005b6101a2600480360381019061019d9190613850565b6114e4565b005b3480156101b057600080fd5b506101b9611621565b6040516101c691906140eb565b60405180910390f35b6101e960048036038101906101e491906138a4565b6116da565b005b3480156101f757600080fd5b50610200611c4d565b005b34801561020e57600080fd5b50610217611c61565b005b34801561022557600080fd5b5061022e611daf565b60405161023b9190614062565b60405180910390f35b34801561025057600080fd5b5061026b60048036038101906102669190613934565b611dd9565b005b34801561027957600080fd5b50610294600480360381019061028f9190613934565b6122a4565b6040516102a19190614469565b60405180910390f35b3480156102b657600080fd5b506102d160048036038101906102cc919061395d565b6124d3565b6040516102e1949392919061409f565b60405180910390f35b3480156102f657600080fd5b50610311600480360381019061030c9190613827565b612d79565b005b60603373ffffffffffffffffffffffffffffffffffffffff16610334611daf565b73ffffffffffffffffffffffffffffffffffffffff16141561067557600061035c60fb612dfd565b905060008167ffffffffffffffff8111156103a0577f4e487b7100000000000000000000000000000000000000000000000000000000600052604160045260246000fd5b6040519080825280602002602001820160405280156103d957816020015b6103c66135be565b8152602001906001900390816103be5790505b50905060005b8281101561066a5760fc60006001836103f891906145a3565b8152602001908152602001600020604051806101400160405290816000820154815260200160018201805461042c906147d8565b80601f0160208091040260200160405190810160405280929190818152602001828054610458906147d8565b80156104a55780601f1061047a576101008083540402835291602001916104a5565b820191906000526020600020905b81548152906001019060200180831161048857829003601f168201915b505050505081526020016002820160009054906101000a900473ffffffffffffffffffffffffffffffffffffffff1673ffffffffffffffffffffffffffffffffffffffff1673ffffffffffffffffffffffffffffffffffffffff1681526020016003820160009054906101000a900473ffffffffffffffffffffffffffffffffffffffff1673ffffffffffffffffffffffffffffffffffffffff1673ffffffffffffffffffffffffffffffffffffffff16815260200160048201548152602001600582015481526020016006820154815260200160078201548152602001600882015481526020016009820160009054906101000a900460ff1660038111156105d7577f4e487b7100000000000000000000000000000000000000000000000000000000600052602160045260246000fd5b600381111561060f577f4e487b7100000000000000000000000000000000000000000000000000000000600052602160045260246000fd5b8152505082828151811061064c577f4e487b7100000000000000000000000000000000000000000000000000000000600052603260045260246000fd5b602002602001018190525080806106629061483b565b9150506103df565b508092505050610a55565b600060fd60003373ffffffffffffffffffffffffffffffffffffffff1673ffffffffffffffffffffffffffffffffffffffff1681526020019081526020016000205467ffffffffffffffff8111156106f6577f4e487b7100000000000000000000000000000000000000000000000000000000600052604160045260246000fd5b60405190808252806020026020018201604052801561072f57816020015b61071c6135be565b8152602001906001900390816107145790505b50905060005b60fd60003373ffffffffffffffffffffffffffffffffffffffff1673ffffffffffffffffffffffffffffffffffffffff16815260200190815260200160002054811015610a4f5760fc600060fe60003373ffffffffffffffffffffffffffffffffffffffff1673ffffffffffffffffffffffffffffffffffffffff16815260200190815260200160002060006001856107ce91906145a3565b81526020019081526020016000205481526020019081526020016000206040518061014001604052908160008201548152602001600182018054610811906147d8565b80601f016020809104026020016040519081016040528092919081815260200182805461083d906147d8565b801561088a5780601f1061085f5761010080835404028352916020019161088a565b820191906000526020600020905b81548152906001019060200180831161086d57829003601f168201915b505050505081526020016002820160009054906101000a900473ffffffffffffffffffffffffffffffffffffffff1673ffffffffffffffffffffffffffffffffffffffff1673ffffffffffffffffffffffffffffffffffffffff1681526020016003820160009054906101000a900473ffffffffffffffffffffffffffffffffffffffff1673ffffffffffffffffffffffffffffffffffffffff1673ffffffffffffffffffffffffffffffffffffffff16815260200160048201548152602001600582015481526020016006820154815260200160078201548152602001600882015481526020016009820160009054906101000a900460ff1660038111156109bc577f4e487b7100000000000000000000000000000000000000000000000000000000600052602160045260246000fd5b60038111156109f4577f4e487b7100000000000000000000000000000000000000000000000000000000600052602160045260246000fd5b81525050828281518110610a31577f4e487b7100000000000000000000000000000000000000000000000000000000600052603260045260246000fd5b60200260200101819052508080610a479061483b565b915050610735565b50809150505b90565b803373ffffffffffffffffffffffffffffffffffffffff1660fc600083815260200190815260200160002060030160009054906101000a900473ffffffffffffffffffffffffffffffffffffffff1673ffffffffffffffffffffffffffffffffffffffff161480610afb57503373ffffffffffffffffffffffffffffffffffffffff16610ae3611daf565b73ffffffffffffffffffffffffffffffffffffffff16145b610b3a576040517f08c379a0000000000000000000000000000000000000000000000000000000008152600401610b3190614249565b60405180910390fd5b60026001541415610b80576040517f08c379a0000000000000000000000000000000000000000000000000000000008152600401610b7790614449565b60405180910390fd5b600260018190555060006003811115610bc2577f4e487b7100000000000000000000000000000000000000000000000000000000600052602160045260246000fd5b60fc600084815260200190815260200160002060090160009054906101000a900460ff166003811115610c1e577f4e487b7100000000000000000000000000000000000000000000000000000000600052602160045260246000fd5b14610c5e576040517f08c379a0000000000000000000000000000000000000000000000000000000008152600401610c5590614269565b60405180910390fd5b60fc600083815260200190815260200160002060020160009054906101000a900473ffffffffffffffffffffffffffffffffffffffff1673ffffffffffffffffffffffffffffffffffffffff166108fc60fc60008581526020019081526020016000206005015460fc600086815260200190815260200160002060040154610ce691906145a3565b9081150290604051600060405180830381858888f19350505050158015610d11573d6000803e3d6000fd5b504260fc600084815260200190815260200160002060080181905550600360fc600084815260200190815260200160002060090160006101000a81548160ff02191690836003811115610d8d577f4e487b7100000000000000000000000000000000000000000000000000000000600052602160045260246000fd5b0217905550600380811115610dcb577f4e487b7100000000000000000000000000000000000000000000000000000000600052602160045260246000fd5b827facfcb6d1fa91c83112102ce242b5502826bbc1a8114bc5030f4b4bd844dc3e6760fc600086815260200190815260200160002060010160fc600087815260200190815260200160002060020160009054906101000a900473ffffffffffffffffffffffffffffffffffffffff1660fc600088815260200190815260200160002060030160009054906101000a900473ffffffffffffffffffffffffffffffffffffffff1660fc60008981526020019081526020016000206004015460fc60008a815260200190815260200160002060050154604051610eb095949392919061418f565b60405180910390a3600180819055505050565b7f000000000000000000000000000000000000000000000000000000000000000073ffffffffffffffffffffffffffffffffffffffff163073ffffffffffffffffffffffffffffffffffffffff161415610f52576040517f08c379a0000000000000000000000000000000000000000000000000000000008152600401610f4990614209565b60405180910390fd5b7f000000000000000000000000000000000000000000000000000000000000000073ffffffffffffffffffffffffffffffffffffffff16610f91612e0b565b73ffffffffffffffffffffffffffffffffffffffff1614610fe7576040517f08c379a0000000000000000000000000000000000000000000000000000000008152600401610fde90614229565b60405180910390fd5b610ff081612e62565b61106f81600067ffffffffffffffff811115611035577f4e487b7100000000000000000000000000000000000000000000000000000000600052604160045260246000fd5b6040519080825280601f01601f1916602001820160405280156110675781602001600182028036833780820191505090505b506000612e6d565b50565b803373ffffffffffffffffffffffffffffffffffffffff1660fc600083815260200190815260200160002060020160009054906101000a900473ffffffffffffffffffffffffffffffffffffffff1673ffffffffffffffffffffffffffffffffffffffff1614611117576040517f08c379a000000000000000000000000000000000000000000000000000000000815260040161110e90614289565b60405180910390fd5b6002600154141561115d576040517f08c379a000000000000000000000000000000000000000000000000000000000815260040161115490614449565b60405180910390fd5b60026001819055506000600381111561119f577f4e487b7100000000000000000000000000000000000000000000000000000000600052602160045260246000fd5b60fc600084815260200190815260200160002060090160009054906101000a900460ff1660038111156111fb577f4e487b7100000000000000000000000000000000000000000000000000000000600052602160045260246000fd5b1461123b576040517f08c379a000000000000000000000000000000000000000000000000000000000815260040161123290614369565b60405180910390fd5b60fc600083815260200190815260200160002060030160009054906101000a900473ffffffffffffffffffffffffffffffffffffffff1673ffffffffffffffffffffffffffffffffffffffff166108fc60fc6000858152602001908152602001600020600401549081150290604051600060405180830381858888f193505050501580156112cd573d6000803e3d6000fd5b506112d6611daf565b73ffffffffffffffffffffffffffffffffffffffff166108fc60fc6000858152602001908152602001600020600501549081150290604051600060405180830381858888f19350505050158015611331573d6000803e3d6000fd5b504260fc600084815260200190815260200160002060080181905550600160fc600084815260200190815260200160002060090160006101000a81548160ff021916908360038111156113ad577f4e487b7100000000000000000000000000000000000000000000000000000000600052602160045260246000fd5b0217905550600160038111156113ec577f4e487b7100000000000000000000000000000000000000000000000000000000600052602160045260246000fd5b827facfcb6d1fa91c83112102ce242b5502826bbc1a8114bc5030f4b4bd844dc3e6760fc600086815260200190815260200160002060010160fc600087815260200190815260200160002060020160009054906101000a900473ffffffffffffffffffffffffffffffffffffffff1660fc600088815260200190815260200160002060030160009054906101000a900473ffffffffffffffffffffffffffffffffffffffff1660fc60008981526020019081526020016000206004015460fc60008a8152602001908152602001600020600501546040516114d195949392919061418f565b60405180910390a3600180819055505050565b7f000000000000000000000000000000000000000000000000000000000000000073ffffffffffffffffffffffffffffffffffffffff163073ffffffffffffffffffffffffffffffffffffffff161415611573576040517f08c379a000000000000000000000000000000000000000000000000000000000815260040161156a90614209565b60405180910390fd5b7f000000000000000000000000000000000000000000000000000000000000000073ffffffffffffffffffffffffffffffffffffffff166115b2612e0b565b73ffffffffffffffffffffffffffffffffffffffff1614611608576040517f08c379a00000000000000000000000000000000000000000000000000000000081526004016115ff90614229565b60405180910390fd5b61161182612e62565b61161d82826001612e6d565b5050565b60007f000000000000000000000000000000000000000000000000000000000000000073ffffffffffffffffffffffffffffffffffffffff163073ffffffffffffffffffffffffffffffffffffffff16146116b1576040517f08c379a00000000000000000000000000000000000000000000000000000000081526004016116a8906142a9565b60405180910390fd5b7f360894a13ba1a3210667c828492db98dca3e2076cc3735a920a3ca505d382bbc60001b905090565b60026001541415611720576040517f08c379a000000000000000000000000000000000000000000000000000000000815260040161171790614449565b60405180910390fd5b600260018190555061173260fb612fea565b600061173e60fb612dfd565b9050655af3107a4000341015611789576040517f08c379a0000000000000000000000000000000000000000000000000000000008152600401611780906143c9565b60405180910390fd5b6000606460053461179a919061462a565b6117a491906145f9565b9050600081346117b49190614684565b90506040518061014001604052808481526020018681526020013373ffffffffffffffffffffffffffffffffffffffff1681526020018773ffffffffffffffffffffffffffffffffffffffff168152602001828152602001838152602001428152602001858152602001600081526020016000600381111561185f577f4e487b7100000000000000000000000000000000000000000000000000000000600052602160045260246000fd5b81525060fc600085815260200190815260200160002060008201518160000155602082015181600101908051906020019061189b929190613675565b5060408201518160020160006101000a81548173ffffffffffffffffffffffffffffffffffffffff021916908373ffffffffffffffffffffffffffffffffffffffff16021790555060608201518160030160006101000a81548173ffffffffffffffffffffffffffffffffffffffff021916908373ffffffffffffffffffffffffffffffffffffffff1602179055506080820151816004015560a0820151816005015560c0820151816006015560e0820151816007015561010082015181600801556101208201518160090160006101000a81548160ff021916908360038111156119af577f4e487b7100000000000000000000000000000000000000000000000000000000600052602160045260246000fd5b0217905550905050600160fd60003373ffffffffffffffffffffffffffffffffffffffff1673ffffffffffffffffffffffffffffffffffffffff16815260200190815260200160002054611a0391906145a3565b60fd60003373ffffffffffffffffffffffffffffffffffffffff1673ffffffffffffffffffffffffffffffffffffffff168152602001908152602001600020819055508260fe60003373ffffffffffffffffffffffffffffffffffffffff1673ffffffffffffffffffffffffffffffffffffffff168152602001908152602001600020600060fd60003373ffffffffffffffffffffffffffffffffffffffff1673ffffffffffffffffffffffffffffffffffffffff16815260200190815260200160002054815260200190815260200160002081905550600160fd60008873ffffffffffffffffffffffffffffffffffffffff1673ffffffffffffffffffffffffffffffffffffffff16815260200190815260200160002054611b2691906145a3565b60fd60008873ffffffffffffffffffffffffffffffffffffffff1673ffffffffffffffffffffffffffffffffffffffff168152602001908152602001600020819055508260fe60008873ffffffffffffffffffffffffffffffffffffffff1673ffffffffffffffffffffffffffffffffffffffff168152602001908152602001600020600060fd60008a73ffffffffffffffffffffffffffffffffffffffff1673ffffffffffffffffffffffffffffffffffffffff168152602001908152602001600020548152602001908152602001600020819055508181847fb9e71d1f685b313accb4809b03f62dc9601718815d3758ed626f3802e7f005b188338b6000604051611c369493929190614143565b60405180910390a450505060018081905550505050565b611c55613000565b611c5f600061307e565b565b60008060019054906101000a900460ff16159050808015611c925750600160008054906101000a900460ff1660ff16105b80611cbf5750611ca130613144565b158015611cbe5750600160008054906101000a900460ff1660ff16145b5b611cfe576040517f08c379a0000000000000000000000000000000000000000000000000000000008152600401611cf5906142e9565b60405180910390fd5b60016000806101000a81548160ff021916908360ff1602179055508015611d3b576001600060016101000a81548160ff0219169083151502179055505b611d43613167565b611d4b6131c0565b611d53613219565b8015611dac5760008060016101000a81548160ff0219169083151502179055507f7f26b83ff96e1f2b6a682f133852f6798a09c465da95921460cefb38474024986001604051611da39190614106565b60405180910390a15b50565b6000606560009054906101000a900473ffffffffffffffffffffffffffffffffffffffff16905090565b803373ffffffffffffffffffffffffffffffffffffffff1660fc600083815260200190815260200160002060030160009054906101000a900473ffffffffffffffffffffffffffffffffffffffff1673ffffffffffffffffffffffffffffffffffffffff1614611e7e576040517f08c379a0000000000000000000000000000000000000000000000000000000008152600401611e7590614409565b60405180910390fd5b60026001541415611ec4576040517f08c379a0000000000000000000000000000000000000000000000000000000008152600401611ebb90614449565b60405180910390fd5b60026001819055504260fc6000848152602001908152602001600020600701541115611f25576040517f08c379a0000000000000000000000000000000000000000000000000000000008152600401611f1c90614329565b60405180910390fd5b60006003811115611f5f577f4e487b7100000000000000000000000000000000000000000000000000000000600052602160045260246000fd5b60fc600084815260200190815260200160002060090160009054906101000a900460ff166003811115611fbb577f4e487b7100000000000000000000000000000000000000000000000000000000600052602160045260246000fd5b14611ffb576040517f08c379a0000000000000000000000000000000000000000000000000000000008152600401611ff2906143a9565b60405180910390fd5b60fc600083815260200190815260200160002060030160009054906101000a900473ffffffffffffffffffffffffffffffffffffffff1673ffffffffffffffffffffffffffffffffffffffff166108fc60fc6000858152602001908152602001600020600401549081150290604051600060405180830381858888f1935050505015801561208d573d6000803e3d6000fd5b50612096611daf565b73ffffffffffffffffffffffffffffffffffffffff166108fc60fc6000858152602001908152602001600020600501549081150290604051600060405180830381858888f193505050501580156120f1573d6000803e3d6000fd5b504260fc600084815260200190815260200160002060080181905550600260fc600084815260200190815260200160002060090160006101000a81548160ff0219169083600381111561216d577f4e487b7100000000000000000000000000000000000000000000000000000000600052602160045260246000fd5b0217905550600260038111156121ac577f4e487b7100000000000000000000000000000000000000000000000000000000600052602160045260246000fd5b827facfcb6d1fa91c83112102ce242b5502826bbc1a8114bc5030f4b4bd844dc3e6760fc600086815260200190815260200160002060010160fc600087815260200190815260200160002060020160009054906101000a900473ffffffffffffffffffffffffffffffffffffffff1660fc600088815260200190815260200160002060030160009054906101000a900473ffffffffffffffffffffffffffffffffffffffff1660fc60008981526020019081526020016000206004015460fc60008a81526020019081526020016000206005015460405161229195949392919061418f565b60405180910390a3600180819055505050565b6122ac6135be565b60fc600083815260200190815260200160002060405180610140016040529081600082015481526020016001820180546122e5906147d8565b80601f0160208091040260200160405190810160405280929190818152602001828054612311906147d8565b801561235e5780601f106123335761010080835404028352916020019161235e565b820191906000526020600020905b81548152906001019060200180831161234157829003601f168201915b505050505081526020016002820160009054906101000a900473ffffffffffffffffffffffffffffffffffffffff1673ffffffffffffffffffffffffffffffffffffffff1673ffffffffffffffffffffffffffffffffffffffff1681526020016003820160009054906101000a900473ffffffffffffffffffffffffffffffffffffffff1673ffffffffffffffffffffffffffffffffffffffff1673ffffffffffffffffffffffffffffffffffffffff16815260200160048201548152602001600582015481526020016006820154815260200160078201548152602001600882015481526020016009820160009054906101000a900460ff166003811115612490577f4e487b7100000000000000000000000000000000000000000000000000000000600052602160045260246000fd5b60038111156124c8577f4e487b7100000000000000000000000000000000000000000000000000000000600052602160045260246000fd5b815250509050919050565b60606000806000808590503373ffffffffffffffffffffffffffffffffffffffff166124fd611daf565b73ffffffffffffffffffffffffffffffffffffffff1614156128a857600061252560fb612dfd565b905060006001905088826125399190614684565b83111561255757888261254c9190614684565b925060009050612570565b88826125639190614684565b83141561256f57600090505b5b60008367ffffffffffffffff8111156125b2577f4e487b7100000000000000000000000000000000000000000000000000000000600052604160045260246000fd5b6040519080825280602002602001820160405280156125eb57816020015b6125d86135be565b8152602001906001900390816125d05790505b50905060005b848110156128875760fc60006001838e61260b91906145a3565b61261591906145a3565b81526020019081526020016000206040518061014001604052908160008201548152602001600182018054612649906147d8565b80601f0160208091040260200160405190810160405280929190818152602001828054612675906147d8565b80156126c25780601f10612697576101008083540402835291602001916126c2565b820191906000526020600020905b8154815290600101906020018083116126a557829003601f168201915b505050505081526020016002820160009054906101000a900473ffffffffffffffffffffffffffffffffffffffff1673ffffffffffffffffffffffffffffffffffffffff1673ffffffffffffffffffffffffffffffffffffffff1681526020016003820160009054906101000a900473ffffffffffffffffffffffffffffffffffffffff1673ffffffffffffffffffffffffffffffffffffffff1673ffffffffffffffffffffffffffffffffffffffff16815260200160048201548152602001600582015481526020016006820154815260200160078201548152602001600882015481526020016009820160009054906101000a900460ff1660038111156127f4577f4e487b7100000000000000000000000000000000000000000000000000000000600052602160045260246000fd5b600381111561282c577f4e487b7100000000000000000000000000000000000000000000000000000000600052602160045260246000fd5b81525050828281518110612869577f4e487b7100000000000000000000000000000000000000000000000000000000600052603260045260246000fd5b6020026020010181905250808061287f9061483b565b9150506125f1565b50808383868d61289791906145a3565b975097509750975050505050612d70565b6000600190508760fd60003373ffffffffffffffffffffffffffffffffffffffff1673ffffffffffffffffffffffffffffffffffffffff168152602001908152602001600020546128f99190614684565b821115612956578760fd60003373ffffffffffffffffffffffffffffffffffffffff1673ffffffffffffffffffffffffffffffffffffffff1681526020019081526020016000205461294b9190614684565b9150600090506129ae565b8760fd60003373ffffffffffffffffffffffffffffffffffffffff1673ffffffffffffffffffffffffffffffffffffffff168152602001908152602001600020546129a19190614684565b8214156129ad57600090505b5b60008267ffffffffffffffff8111156129f0577f4e487b7100000000000000000000000000000000000000000000000000000000600052604160045260246000fd5b604051908082528060200260200182016040528015612a2957816020015b612a166135be565b815260200190600190039081612a0e5790505b50905060005b83811015612d155760fc600060fe60003373ffffffffffffffffffffffffffffffffffffffff1673ffffffffffffffffffffffffffffffffffffffff16815260200190815260200160002060006001858f612a8a91906145a3565b612a9491906145a3565b81526020019081526020016000205481526020019081526020016000206040518061014001604052908160008201548152602001600182018054612ad7906147d8565b80601f0160208091040260200160405190810160405280929190818152602001828054612b03906147d8565b8015612b505780601f10612b2557610100808354040283529160200191612b50565b820191906000526020600020905b815481529060010190602001808311612b3357829003601f168201915b505050505081526020016002820160009054906101000a900473ffffffffffffffffffffffffffffffffffffffff1673ffffffffffffffffffffffffffffffffffffffff1673ffffffffffffffffffffffffffffffffffffffff1681526020016003820160009054906101000a900473ffffffffffffffffffffffffffffffffffffffff1673ffffffffffffffffffffffffffffffffffffffff1673ffffffffffffffffffffffffffffffffffffffff16815260200160048201548152602001600582015481526020016006820154815260200160078201548152602001600882015481526020016009820160009054906101000a900460ff166003811115612c82577f4e487b7100000000000000000000000000000000000000000000000000000000600052602160045260246000fd5b6003811115612cba577f4e487b7100000000000000000000000000000000000000000000000000000000600052602160045260246000fd5b81525050828281518110612cf7577f4e487b7100000000000000000000000000000000000000000000000000000000600052603260045260246000fd5b60200260200101819052508080612d0d9061483b565b915050612a2f565b508060fd60003373ffffffffffffffffffffffffffffffffffffffff1673ffffffffffffffffffffffffffffffffffffffff1681526020019081526020016000205483858c612d6491906145a3565b96509650965096505050505b92959194509250565b612d81613000565b600073ffffffffffffffffffffffffffffffffffffffff168173ffffffffffffffffffffffffffffffffffffffff161415612df1576040517f08c379a0000000000000000000000000000000000000000000000000000000008152600401612de8906141e9565b60405180910390fd5b612dfa8161307e565b50565b600081600001549050919050565b6000612e397f360894a13ba1a3210667c828492db98dca3e2076cc3735a920a3ca505d382bbc60001b61326a565b60000160009054906101000a900473ffffffffffffffffffffffffffffffffffffffff16905090565b612e6a613000565b50565b612e997f4910fdfa16fed3260ed0e7147f7cc6da11a60208b5b9406d12a635614ffd914360001b613274565b60000160009054906101000a900460ff1615612ebd57612eb88361327e565b612fe5565b8273ffffffffffffffffffffffffffffffffffffffff166352d1902d6040518163ffffffff1660e01b815260040160206040518083038186803b158015612f0357600080fd5b505afa925050508015612f3457506040513d601f19601f82011682018060405250810190612f31919061390b565b60015b612f73576040517f08c379a0000000000000000000000000000000000000000000000000000000008152600401612f6a90614309565b60405180910390fd5b7f360894a13ba1a3210667c828492db98dca3e2076cc3735a920a3ca505d382bbc60001b8114612fd8576040517f08c379a0000000000000000000000000000000000000000000000000000000008152600401612fcf906142c9565b60405180910390fd5b50612fe4838383613337565b5b505050565b6001816000016000828254019250508190555050565b613008613363565b73ffffffffffffffffffffffffffffffffffffffff16613026611daf565b73ffffffffffffffffffffffffffffffffffffffff161461307c576040517f08c379a000000000000000000000000000000000000000000000000000000000815260040161307390614389565b60405180910390fd5b565b6000606560009054906101000a900473ffffffffffffffffffffffffffffffffffffffff16905081606560006101000a81548173ffffffffffffffffffffffffffffffffffffffff021916908373ffffffffffffffffffffffffffffffffffffffff1602179055508173ffffffffffffffffffffffffffffffffffffffff168173ffffffffffffffffffffffffffffffffffffffff167f8be0079c531659141344cd1fd0a4f28419497f9722a3daafe3b4186f6b6457e060405160405180910390a35050565b6000808273ffffffffffffffffffffffffffffffffffffffff163b119050919050565b600060019054906101000a900460ff166131b6576040517f08c379a00000000000000000000000000000000000000000000000000000000081526004016131ad90614429565b60405180910390fd5b6131be61336b565b565b600060019054906101000a900460ff1661320f576040517f08c379a000000000000000000000000000000000000000000000000000000000815260040161320690614429565b60405180910390fd5b6132176133c3565b565b600060019054906101000a900460ff16613268576040517f08c379a000000000000000000000000000000000000000000000000000000000815260040161325f90614429565b60405180910390fd5b565b6000819050919050565b6000819050919050565b61328781613144565b6132c6576040517f08c379a00000000000000000000000000000000000000000000000000000000081526004016132bd90614349565b60405180910390fd5b806132f37f360894a13ba1a3210667c828492db98dca3e2076cc3735a920a3ca505d382bbc60001b61326a565b60000160006101000a81548173ffffffffffffffffffffffffffffffffffffffff021916908373ffffffffffffffffffffffffffffffffffffffff16021790555050565b61334083613424565b60008251118061334d5750805b1561335e5761335c8383613473565b505b505050565b600033905090565b600060019054906101000a900460ff166133ba576040517f08c379a00000000000000000000000000000000000000000000000000000000081526004016133b190614429565b60405180910390fd5b60018081905550565b600060019054906101000a900460ff16613412576040517f08c379a000000000000000000000000000000000000000000000000000000000815260040161340990614429565b60405180910390fd5b61342261341d613363565b61307e565b565b61342d8161327e565b8073ffffffffffffffffffffffffffffffffffffffff167fbc7cd75a20ee27fd9adebab32041f755214dbc6bffa90cc0225b39da2e5c2d3b60405160405180910390a250565b606061347e83613144565b6134bd576040517f08c379a00000000000000000000000000000000000000000000000000000000081526004016134b4906143e9565b60405180910390fd5b6000808473ffffffffffffffffffffffffffffffffffffffff16846040516134e5919061404b565b600060405180830381855af49150503d8060008114613520576040519150601f19603f3d011682016040523d82523d6000602084013e613525565b606091505b509150915061354d8282604051806060016040528060278152602001614f4860279139613557565b9250505092915050565b60608315613567578290506135b7565b60008351111561357a5782518084602001fd5b816040517f08c379a00000000000000000000000000000000000000000000000000000000081526004016135ae9190614121565b60405180910390fd5b9392505050565b6040518061014001604052806000815260200160608152602001600073ffffffffffffffffffffffffffffffffffffffff168152602001600073ffffffffffffffffffffffffffffffffffffffff16815260200160008152602001600081526020016000815260200160008152602001600081526020016000600381111561366f577f4e487b7100000000000000000000000000000000000000000000000000000000600052602160045260246000fd5b81525090565b828054613681906147d8565b90600052602060002090601f0160209004810192826136a357600085556136ea565b82601f106136bc57805160ff19168380011785556136ea565b828001600101855582156136ea579182015b828111156136e95782518255916020019190600101906136ce565b5b5090506136f791906136fb565b5090565b5b808211156137145760008160009055506001016136fc565b5090565b600061372b613726846144b0565b61448b565b90508281526020810184848401111561374357600080fd5b61374e848285614796565b509392505050565b6000613769613764846144e1565b61448b565b90508281526020810184848401111561378157600080fd5b61378c848285614796565b509392505050565b6000813590506137a381614f02565b92915050565b6000815190506137b881614f19565b92915050565b600082601f8301126137cf57600080fd5b81356137df848260208601613718565b91505092915050565b600082601f8301126137f957600080fd5b8135613809848260208601613756565b91505092915050565b60008135905061382181614f30565b92915050565b60006020828403121561383957600080fd5b600061384784828501613794565b91505092915050565b6000806040838503121561386357600080fd5b600061387185828601613794565b925050602083013567ffffffffffffffff81111561388e57600080fd5b61389a858286016137be565b9150509250929050565b6000806000606084860312156138b957600080fd5b60006138c786828701613794565b935050602084013567ffffffffffffffff8111156138e457600080fd5b6138f0868287016137e8565b925050604061390186828701613812565b9150509250925092565b60006020828403121561391d57600080fd5b600061392b848285016137a9565b91505092915050565b60006020828403121561394657600080fd5b600061395484828501613812565b91505092915050565b6000806040838503121561397057600080fd5b600061397e85828601613812565b925050602061398f85828601613812565b9150509250929050565b60006139a58383613e79565b905092915050565b6139b68161473c565b82525050565b6139c5816146ca565b82525050565b6139d4816146b8565b82525050565b60006139e582614537565b6139ef8185614565565b935083602082028501613a0185614512565b8060005b85811015613a3d5784840389528151613a1e8582613999565b9450613a2983614558565b925060208a01995050600181019050613a05565b50829750879550505050505092915050565b613a58816146dc565b82525050565b613a67816146e8565b82525050565b6000613a7882614542565b613a828185614576565b9350613a928185602086016147a5565b80840191505092915050565b613aa78161474e565b82525050565b613ab68161474e565b82525050565b613ac581614760565b82525050565b6000613ad68261454d565b613ae08185614581565b9350613af08185602086016147a5565b613af98161496f565b840191505092915050565b6000613b0f8261454d565b613b198185614592565b9350613b298185602086016147a5565b613b328161496f565b840191505092915050565b60008154613b4a816147d8565b613b548186614592565b94506001821660008114613b6f5760018114613b8157613bb4565b60ff1983168652602086019350613bb4565b613b8a85614522565b60005b83811015613bac57815481890152600182019150602081019050613b8d565b808801955050505b50505092915050565b6000613bca602683614592565b9150613bd582614980565b604082019050919050565b6000613bed602c83614592565b9150613bf8826149cf565b604082019050919050565b6000613c10602c83614592565b9150613c1b82614a1e565b604082019050919050565b6000613c33602c83614592565b9150613c3e82614a6d565b604082019050919050565b6000613c56603083614592565b9150613c6182614abc565b604082019050919050565b6000613c79601583614592565b9150613c8482614b0b565b602082019050919050565b6000613c9c603883614592565b9150613ca782614b34565b604082019050919050565b6000613cbf602983614592565b9150613cca82614b83565b604082019050919050565b6000613ce2602e83614592565b9150613ced82614bd2565b604082019050919050565b6000613d05602e83614592565b9150613d1082614c21565b604082019050919050565b6000613d28601883614592565b9150613d3382614c70565b602082019050919050565b6000613d4b602d83614592565b9150613d5682614c99565b604082019050919050565b6000613d6e603583614592565b9150613d7982614ce8565b604082019050919050565b6000613d91602083614592565b9150613d9c82614d37565b602082019050919050565b6000613db4603383614592565b9150613dbf82614d60565b604082019050919050565b6000613dd7602983614592565b9150613de282614daf565b604082019050919050565b6000613dfa602683614592565b9150613e0582614dfe565b604082019050919050565b6000613e1d601683614592565b9150613e2882614e4d565b602082019050919050565b6000613e40602b83614592565b9150613e4b82614e76565b604082019050919050565b6000613e63601f83614592565b9150613e6e82614ec5565b602082019050919050565b600061014083016000830151613e92600086018261402d565b5060208301518482036020860152613eaa8282613acb565b9150506040830151613ebf60408601826139bc565b506060830151613ed260608601826139bc565b506080830151613ee5608086018261402d565b5060a0830151613ef860a086018261402d565b5060c0830151613f0b60c086018261402d565b5060e0830151613f1e60e086018261402d565b50610100830151613f3361010086018261402d565b50610120830151613f48610120860182613a9e565b508091505092915050565b600061014083016000830151613f6c600086018261402d565b5060208301518482036020860152613f848282613acb565b9150506040830151613f9960408601826139bc565b506060830151613fac60608601826139bc565b506080830151613fbf608086018261402d565b5060a0830151613fd260a086018261402d565b5060c0830151613fe560c086018261402d565b5060e0830151613ff860e086018261402d565b5061010083015161400d61010086018261402d565b50610120830151614022610120860182613a9e565b508091505092915050565b61403681614725565b82525050565b61404581614725565b82525050565b60006140578284613a6d565b915081905092915050565b600060208201905061407760008301846139cb565b92915050565b6000602082019050818103600083015261409781846139da565b905092915050565b600060808201905081810360008301526140b981876139da565b90506140c8602083018661403c565b6140d56040830185613a4f565b6140e2606083018461403c565b95945050505050565b60006020820190506141006000830184613a5e565b92915050565b600060208201905061411b6000830184613abc565b92915050565b6000602082019050818103600083015261413b8184613b04565b905092915050565b6000608082019050818103600083015261415d8187613b04565b905061416c60208301866139cb565b61417960408301856139cb565b6141866060830184613aad565b95945050505050565b600060a08201905081810360008301526141a98188613b3d565b90506141b860208301876139ad565b6141c560408301866139ad565b6141d2606083018561403c565b6141df608083018461403c565b9695505050505050565b6000602082019050818103600083015261420281613bbd565b9050919050565b6000602082019050818103600083015261422281613be0565b9050919050565b6000602082019050818103600083015261424281613c03565b9050919050565b6000602082019050818103600083015261426281613c26565b9050919050565b6000602082019050818103600083015261428281613c49565b9050919050565b600060208201905081810360008301526142a281613c6c565b9050919050565b600060208201905081810360008301526142c281613c8f565b9050919050565b600060208201905081810360008301526142e281613cb2565b9050919050565b6000602082019050818103600083015261430281613cd5565b9050919050565b6000602082019050818103600083015261432281613cf8565b9050919050565b6000602082019050818103600083015261434281613d1b565b9050919050565b6000602082019050818103600083015261436281613d3e565b9050919050565b6000602082019050818103600083015261438281613d61565b9050919050565b600060208201905081810360008301526143a281613d84565b9050919050565b600060208201905081810360008301526143c281613da7565b9050919050565b600060208201905081810360008301526143e281613dca565b9050919050565b6000602082019050818103600083015261440281613ded565b9050919050565b6000602082019050818103600083015261442281613e10565b9050919050565b6000602082019050818103600083015261444281613e33565b9050919050565b6000602082019050818103600083015261446281613e56565b9050919050565b600060208201905081810360008301526144838184613f53565b905092915050565b60006144956144a6565b90506144a1828261480a565b919050565b6000604051905090565b600067ffffffffffffffff8211156144cb576144ca614940565b5b6144d48261496f565b9050602081019050919050565b600067ffffffffffffffff8211156144fc576144fb614940565b5b6145058261496f565b9050602081019050919050565b6000819050602082019050919050565b60008190508160005260206000209050919050565b600081519050919050565b600081519050919050565b600081519050919050565b6000602082019050919050565b600082825260208201905092915050565b600081905092915050565b600082825260208201905092915050565b600082825260208201905092915050565b60006145ae82614725565b91506145b983614725565b9250827fffffffffffffffffffffffffffffffffffffffffffffffffffffffffffffffff038211156145ee576145ed614884565b5b828201905092915050565b600061460482614725565b915061460f83614725565b92508261461f5761461e6148b3565b5b828204905092915050565b600061463582614725565b915061464083614725565b9250817fffffffffffffffffffffffffffffffffffffffffffffffffffffffffffffffff048311821515161561467957614678614884565b5b828202905092915050565b600061468f82614725565b915061469a83614725565b9250828210156146ad576146ac614884565b5b828203905092915050565b60006146c382614705565b9050919050565b60006146d582614705565b9050919050565b60008115159050919050565b6000819050919050565b600081905061470082614eee565b919050565b600073ffffffffffffffffffffffffffffffffffffffff82169050919050565b6000819050919050565b600060ff82169050919050565b600061474782614772565b9050919050565b6000614759826146f2565b9050919050565b600061476b8261472f565b9050919050565b600061477d82614784565b9050919050565b600061478f82614705565b9050919050565b82818337600083830152505050565b60005b838110156147c35780820151818401526020810190506147a8565b838111156147d2576000848401525b50505050565b600060028204905060018216806147f057607f821691505b6020821081141561480457614803614911565b5b50919050565b6148138261496f565b810181811067ffffffffffffffff8211171561483257614831614940565b5b80604052505050565b600061484682614725565b91507fffffffffffffffffffffffffffffffffffffffffffffffffffffffffffffffff82141561487957614878614884565b5b600182019050919050565b7f4e487b7100000000000000000000000000000000000000000000000000000000600052601160045260246000fd5b7f4e487b7100000000000000000000000000000000000000000000000000000000600052601260045260246000fd5b7f4e487b7100000000000000000000000000000000000000000000000000000000600052602160045260246000fd5b7f4e487b7100000000000000000000000000000000000000000000000000000000600052602260045260246000fd5b7f4e487b7100000000000000000000000000000000000000000000000000000000600052604160045260246000fd5b6000601f19601f8301169050919050565b7f4f776e61626c653a206e6577206f776e657220697320746865207a65726f206160008201527f6464726573730000000000000000000000000000000000000000000000000000602082015250565b7f46756e6374696f6e206d7573742062652063616c6c6564207468726f7567682060008201527f64656c656761746563616c6c0000000000000000000000000000000000000000602082015250565b7f46756e6374696f6e206d7573742062652063616c6c6564207468726f7567682060008201527f6163746976652070726f78790000000000000000000000000000000000000000602082015250565b7f4f6e6c792073656c6c6572206f72204f776e65722063616e20706572666f726d60008201527f207468697320616374696f6e0000000000000000000000000000000000000000602082015250565b7f43616e277420726566756e64207468697320657363726f772e20416c7265616460008201527f792075706461746564206265666f726500000000000000000000000000000000602082015250565b7f4f6e6c792042757965722043616e204163636573730000000000000000000000600082015250565b7f555550535570677261646561626c653a206d757374206e6f742062652063616c60008201527f6c6564207468726f7567682064656c656761746563616c6c0000000000000000602082015250565b7f45524331393637557067726164653a20756e737570706f727465642070726f7860008201527f6961626c65555549440000000000000000000000000000000000000000000000602082015250565b7f496e697469616c697a61626c653a20636f6e747261637420697320616c72656160008201527f647920696e697469616c697a6564000000000000000000000000000000000000602082015250565b7f45524331393637557067726164653a206e657720696d706c656d656e7461746960008201527f6f6e206973206e6f742055555053000000000000000000000000000000000000602082015250565b7f457363726f772069736e27742065787069726564207965740000000000000000600082015250565b7f455243313936373a206e657720696d706c656d656e746174696f6e206973206e60008201527f6f74206120636f6e747261637400000000000000000000000000000000000000602082015250565b7f596f752063616e27742064656c69766572207468697320657363726f772e204160008201527f6c72656164792075706461746564206265666f72650000000000000000000000602082015250565b7f4f776e61626c653a2063616c6c6572206973206e6f7420746865206f776e6572600082015250565b7f596f752063616e277420636c61696d207468697320657363726f772e20416c7260008201527f656164792075706461746564206265666f726500000000000000000000000000602082015250565b7f457363726f77206d757374206265206c6172676572207468656e206d696e696d60008201527f756d20616d6f756e740000000000000000000000000000000000000000000000602082015250565b7f416464726573733a2064656c65676174652063616c6c20746f206e6f6e2d636f60008201527f6e74726163740000000000000000000000000000000000000000000000000000602082015250565b7f4f6e6c792053656c6c65722043616e2041636365737300000000000000000000600082015250565b7f496e697469616c697a61626c653a20636f6e7472616374206973206e6f74206960008201527f6e697469616c697a696e67000000000000000000000000000000000000000000602082015250565b7f5265656e7472616e637947756172643a207265656e7472616e742063616c6c00600082015250565b60048110614eff57614efe6148e2565b5b50565b614f0b816146b8565b8114614f1657600080fd5b50565b614f22816146e8565b8114614f2d57600080fd5b50565b614f3981614725565b8114614f4457600080fd5b5056fe416464726573733a206c6f772d6c6576656c2064656c65676174652063616c6c206661696c6564a264697066735822122070493c010fe31f47cc547b317e4c09c7a63c019f1fe467293ebb7126fc73d6c064736f6c63430008040033",
  "linkReferences": {},
  "deployedLinkReferences": {}
}